{
  "contractName": "IPFSProofOfExistenceTestable",
  "abi": [
    {
      "inputs": [],
      "stateMutability": "nonpayable",
      "type": "constructor"
    },
    {
      "anonymous": false,
      "inputs": [
        {
          "indexed": false,
          "internalType": "address",
          "name": "accountAddress",
          "type": "address"
        },
        {
          "indexed": false,
          "internalType": "string",
          "name": "ipfsHash",
          "type": "string"
        },
        {
          "indexed": false,
          "internalType": "string",
          "name": "documentType",
          "type": "string"
        }
      ],
      "name": "LogDocumentStored",
      "type": "event"
    },
    {
      "anonymous": false,
      "inputs": [
        {
          "indexed": false,
          "internalType": "address",
          "name": "accountAddress",
          "type": "address"
        },
        {
          "indexed": false,
          "internalType": "uint256",
          "name": "amount",
          "type": "uint256"
        }
      ],
      "name": "LogFundsWithdrawal",
      "type": "event"
    },
    {
      "anonymous": false,
      "inputs": [
        {
          "indexed": true,
          "internalType": "address",
          "name": "previousOwner",
          "type": "address"
        },
        {
          "indexed": true,
          "internalType": "address",
          "name": "newOwner",
          "type": "address"
        }
      ],
      "name": "OwnershipTransferred",
      "type": "event"
    },
    {
      "anonymous": false,
      "inputs": [
        {
          "indexed": false,
          "internalType": "address",
          "name": "account",
          "type": "address"
        }
      ],
      "name": "Paused",
      "type": "event"
    },
    {
      "anonymous": false,
      "inputs": [
        {
          "indexed": false,
          "internalType": "address",
          "name": "account",
          "type": "address"
        }
      ],
      "name": "Unpaused",
      "type": "event"
    },
    {
      "inputs": [
        {
          "internalType": "address",
          "name": "ownerAddress",
          "type": "address"
        }
      ],
      "name": "checkDocumentsForAddress",
      "outputs": [
        {
          "components": [
            {
              "internalType": "string",
              "name": "timeStamp",
              "type": "string"
            },
            {
              "internalType": "string",
              "name": "ipfsHash",
              "type": "string"
            },
            {
              "internalType": "string",
              "name": "documentType",
              "type": "string"
            }
          ],
          "internalType": "struct IPFSProofOfExistence.DocumentReference[]",
          "name": "",
          "type": "tuple[]"
        }
      ],
      "stateMutability": "view",
      "type": "function",
      "constant": true
    },
    {
      "inputs": [
        {
          "internalType": "address",
          "name": "ownerAddress",
          "type": "address"
        }
      ],
      "name": "getNumberOfProofs",
      "outputs": [
        {
          "internalType": "uint256",
          "name": "",
          "type": "uint256"
        }
      ],
      "stateMutability": "view",
      "type": "function",
      "constant": true
    },
    {
      "inputs": [],
      "name": "getTotalProofs",
      "outputs": [
        {
          "internalType": "uint256",
          "name": "",
          "type": "uint256"
        }
      ],
      "stateMutability": "view",
      "type": "function",
      "constant": true
    },
    {
      "inputs": [
        {
          "internalType": "string",
          "name": "ipfsHash",
          "type": "string"
        }
      ],
      "name": "ipfsHashExists",
      "outputs": [
        {
          "internalType": "bool",
          "name": "",
          "type": "bool"
        }
      ],
      "stateMutability": "view",
      "type": "function",
      "constant": true
    },
    {
      "inputs": [],
      "name": "owner",
      "outputs": [
        {
          "internalType": "address",
          "name": "",
          "type": "address"
        }
      ],
      "stateMutability": "view",
      "type": "function",
      "constant": true
    },
    {
      "inputs": [],
      "name": "pause",
      "outputs": [],
      "stateMutability": "nonpayable",
      "type": "function"
    },
    {
      "inputs": [],
      "name": "paused",
      "outputs": [
        {
          "internalType": "bool",
          "name": "",
          "type": "bool"
        }
      ],
      "stateMutability": "view",
      "type": "function",
      "constant": true
    },
    {
      "inputs": [],
      "name": "renounceOwnership",
      "outputs": [],
      "stateMutability": "nonpayable",
      "type": "function"
    },
    {
      "inputs": [
        {
          "internalType": "string",
          "name": "_timeStamp",
          "type": "string"
        },
        {
          "internalType": "string",
          "name": "_ipfsHash",
          "type": "string"
        },
        {
          "internalType": "string",
          "name": "_documentType",
          "type": "string"
        }
      ],
      "name": "saveProofOfExistence",
      "outputs": [],
      "stateMutability": "payable",
      "type": "function",
      "payable": true
    },
    {
      "inputs": [
        {
          "internalType": "address",
          "name": "newOwner",
          "type": "address"
        }
      ],
      "name": "transferOwnership",
      "outputs": [],
      "stateMutability": "nonpayable",
      "type": "function"
    },
    {
      "inputs": [],
      "name": "unpause",
      "outputs": [],
      "stateMutability": "nonpayable",
      "type": "function"
    },
    {
      "inputs": [
        {
          "internalType": "uint256",
          "name": "withdrawAmount",
          "type": "uint256"
        }
      ],
      "name": "withdrawBalance",
      "outputs": [],
      "stateMutability": "nonpayable",
      "type": "function"
    },
    {
      "inputs": [
        {
          "internalType": "address",
          "name": "documentOwner",
          "type": "address"
        },
        {
          "components": [
            {
              "internalType": "string",
              "name": "timeStamp",
              "type": "string"
            },
            {
              "internalType": "string",
              "name": "ipfsHash",
              "type": "string"
            },
            {
              "internalType": "string",
              "name": "documentType",
              "type": "string"
            }
          ],
          "internalType": "struct IPFSProofOfExistence.DocumentReference",
          "name": "proof",
          "type": "tuple"
        }
      ],
      "name": "storeProof",
      "outputs": [],
      "stateMutability": "nonpayable",
      "type": "function"
    }
  ],
  "bytecode": "0x608060405266038d7ea4c6800060025534801561001b57600080fd5b5060008060006101000a81548160ff02191690831515021790555060006100466100ea60201b60201c565b905080600060016101000a81548173ffffffffffffffffffffffffffffffffffffffff021916908373ffffffffffffffffffffffffffffffffffffffff1602179055508073ffffffffffffffffffffffffffffffffffffffff16600073ffffffffffffffffffffffffffffffffffffffff167f8be0079c531659141344cd1fd0a4f28419497f9722a3daafe3b4186f6b6457e060405160405180910390a3506100f2565b600033905090565b611e14806101016000396000f3fe6080604052600436106100c25760003560e01c80638da5cb5b1161007f578063da76d5cd11610059578063da76d5cd14610244578063e757da121461026d578063ea15c38514610296578063f2fde38b146102b2576100c2565b80638da5cb5b146101b15780639b1bc0c9146101dc578063d6fc355f14610207576100c2565b80631a2110e6146100c75780633f4ba83a146101045780635c975abb1461011b578063715018a6146101465780637182ca471461015d5780638456cb591461019a575b600080fd5b3480156100d357600080fd5b506100ee60048036036100e991908101906115f2565b6102db565b6040516100fb9190611ae6565b60405180910390f35b34801561011057600080fd5b50610119610310565b005b34801561012757600080fd5b506101306103b1565b60405161013d9190611ae6565b60405180910390f35b34801561015257600080fd5b5061015b6103c7565b005b34801561016957600080fd5b50610184600480360361017f91908101906114d1565b61051e565b6040516101919190611bc3565b60405180910390f35b3480156101a657600080fd5b506101af610567565b005b3480156101bd57600080fd5b506101c6610608565b6040516101d39190611a20565b60405180910390f35b3480156101e857600080fd5b506101f1610631565b6040516101fe9190611bc3565b60405180910390f35b34801561021357600080fd5b5061022e600480360361022991908101906114d1565b61063b565b60405161023b9190611ac4565b60405180910390f35b34801561025057600080fd5b5061026b60048036036102669190810190611633565b61090e565b005b34801561027957600080fd5b50610294600480360361028f91908101906114fa565b610a50565b005b6102b060048036036102ab919081019061154e565b610a5e565b005b3480156102be57600080fd5b506102d960048036036102d491908101906114d1565b610c38565b005b60006006826040516102ed9190611a09565b908152602001604051809103902060009054906101000a900460ff169050919050565b610318610dff565b73ffffffffffffffffffffffffffffffffffffffff16600060019054906101000a900473ffffffffffffffffffffffffffffffffffffffff1673ffffffffffffffffffffffffffffffffffffffff16146103a7576040517f08c379a000000000000000000000000000000000000000000000000000000000815260040161039e90611ba3565b60405180910390fd5b6103af610e07565b565b60008060009054906101000a900460ff16905090565b6103cf610dff565b73ffffffffffffffffffffffffffffffffffffffff16600060019054906101000a900473ffffffffffffffffffffffffffffffffffffffff1673ffffffffffffffffffffffffffffffffffffffff161461045e576040517f08c379a000000000000000000000000000000000000000000000000000000000815260040161045590611ba3565b60405180910390fd5b600073ffffffffffffffffffffffffffffffffffffffff16600060019054906101000a900473ffffffffffffffffffffffffffffffffffffffff1673ffffffffffffffffffffffffffffffffffffffff167f8be0079c531659141344cd1fd0a4f28419497f9722a3daafe3b4186f6b6457e060405160405180910390a360008060016101000a81548173ffffffffffffffffffffffffffffffffffffffff021916908373ffffffffffffffffffffffffffffffffffffffff160217905550565b6000600560008373ffffffffffffffffffffffffffffffffffffffff1673ffffffffffffffffffffffffffffffffffffffff168152602001908152602001600020549050919050565b61056f610dff565b73ffffffffffffffffffffffffffffffffffffffff16600060019054906101000a900473ffffffffffffffffffffffffffffffffffffffff1673ffffffffffffffffffffffffffffffffffffffff16146105fe576040517f08c379a00000000000000000000000000000000000000000000000000000000081526004016105f590611ba3565b60405180910390fd5b610606610eaf565b565b60008060019054906101000a900473ffffffffffffffffffffffffffffffffffffffff16905090565b6000600154905090565b60606000809054906101000a900460ff161561068c576040517f08c379a000000000000000000000000000000000000000000000000000000000815260040161068390611b83565b60405180910390fd5b600460008373ffffffffffffffffffffffffffffffffffffffff1673ffffffffffffffffffffffffffffffffffffffff168152602001908152602001600020805480602002602001604051908101604052809291908181526020016000905b828210156109035783829060005260206000209060030201604051806060016040529081600082018054600181600116156101000203166002900480601f0160208091040260200160405190810160405280929190818152602001828054600181600116156101000203166002900480156107a75780601f1061077c576101008083540402835291602001916107a7565b820191906000526020600020905b81548152906001019060200180831161078a57829003601f168201915b50505050508152602001600182018054600181600116156101000203166002900480601f0160208091040260200160405190810160405280929190818152602001828054600181600116156101000203166002900480156108495780601f1061081e57610100808354040283529160200191610849565b820191906000526020600020905b81548152906001019060200180831161082c57829003601f168201915b50505050508152602001600282018054600181600116156101000203166002900480601f0160208091040260200160405190810160405280929190818152602001828054600181600116156101000203166002900480156108eb5780601f106108c0576101008083540402835291602001916108eb565b820191906000526020600020905b8154815290600101906020018083116108ce57829003601f168201915b505050505081525050815260200190600101906106eb565b505050509050919050565b610916610dff565b73ffffffffffffffffffffffffffffffffffffffff16600060019054906101000a900473ffffffffffffffffffffffffffffffffffffffff1673ffffffffffffffffffffffffffffffffffffffff16146109a5576040517f08c379a000000000000000000000000000000000000000000000000000000000815260040161099c90611ba3565b60405180910390fd5b600081116109b257600080fd5b6109c781600354610f5890919063ffffffff16565b6003819055503373ffffffffffffffffffffffffffffffffffffffff166108fc829081150290604051600060405180830381858888f19350505050158015610a13573d6000803e3d6000fd5b507f734fcf7bef4b986ceeebbdc8134aaa082aa17a4c7309655da456b33ebe598abb3382604051610a45929190611a56565b60405180910390a150565b610a5a8282610fa2565b5050565b6000809054906101000a900460ff1615610aad576040517f08c379a0000000000000000000000000000000000000000000000000000000008152600401610aa490611b83565b60405180910390fd5b610ab5611247565b604051806060016040528088888080601f016020809104026020016040519081016040528093929190818152602001838380828437600081840152601f19601f82011690508083019250505050505050815260200186868080601f016020809104026020016040519081016040528093929190818152602001838380828437600081840152601f19601f82011690508083019250505050505050815260200184848080601f016020809104026020016040519081016040528093929190818152602001838380828437600081840152601f19601f820116905080830192505050505050508152509050600254341015610bad57600080fd5b60001515610bfe86868080601f016020809104026020016040519081016040528093929190818152602001838380828437600081840152601f19601f820116905080830192505050505050506102db565b151514610c0a57600080fd5b610c1f3460035461119790919063ffffffff16565b600381905550610c2f3382610fa2565b50505050505050565b610c40610dff565b73ffffffffffffffffffffffffffffffffffffffff16600060019054906101000a900473ffffffffffffffffffffffffffffffffffffffff1673ffffffffffffffffffffffffffffffffffffffff1614610ccf576040517f08c379a0000000000000000000000000000000000000000000000000000000008152600401610cc690611ba3565b60405180910390fd5b600073ffffffffffffffffffffffffffffffffffffffff168173ffffffffffffffffffffffffffffffffffffffff161415610d3f576040517f08c379a0000000000000000000000000000000000000000000000000000000008152600401610d3690611b43565b60405180910390fd5b8073ffffffffffffffffffffffffffffffffffffffff16600060019054906101000a900473ffffffffffffffffffffffffffffffffffffffff1673ffffffffffffffffffffffffffffffffffffffff167f8be0079c531659141344cd1fd0a4f28419497f9722a3daafe3b4186f6b6457e060405160405180910390a380600060016101000a81548173ffffffffffffffffffffffffffffffffffffffff021916908373ffffffffffffffffffffffffffffffffffffffff16021790555050565b600033905090565b6000809054906101000a900460ff16610e55576040517f08c379a0000000000000000000000000000000000000000000000000000000008152600401610e4c90611b23565b60405180910390fd5b60008060006101000a81548160ff0219169083151502179055507f5db9ee0a495bf2e6ff9c91a7834c1ba4fdd244a5e8aa4e537bd38aeae4b073aa610e98610dff565b604051610ea59190611a3b565b60405180910390a1565b6000809054906101000a900460ff1615610efe576040517f08c379a0000000000000000000000000000000000000000000000000000000008152600401610ef590611b83565b60405180910390fd5b60016000806101000a81548160ff0219169083151502179055507f62e78cea01bee320cd4e420270b5ea74000d11b0c9f74754ebdbfc544b05a258610f41610dff565b604051610f4e9190611a3b565b60405180910390a1565b6000610f9a83836040518060400160405280601e81526020017f536166654d6174683a207375627472616374696f6e206f766572666c6f7700008152506111ec565b905092915050565b610fb76001805461119790919063ffffffff16565b6001819055506110106001600560008573ffffffffffffffffffffffffffffffffffffffff1673ffffffffffffffffffffffffffffffffffffffff1681526020019081526020016000205461119790919063ffffffff16565b600560008473ffffffffffffffffffffffffffffffffffffffff1673ffffffffffffffffffffffffffffffffffffffff16815260200190815260200160002081905550600460008373ffffffffffffffffffffffffffffffffffffffff1673ffffffffffffffffffffffffffffffffffffffff16815260200190815260200160002081908060018154018082558091505060019003906000526020600020906003020160009091909190915060008201518160000190805190602001906110d8929190611268565b5060208201518160010190805190602001906110f5929190611268565b506040820151816002019080519060200190611112929190611268565b50505060016006826020015160405161112b91906119f2565b908152602001604051809103902060006101000a81548160ff0219169083151502179055507fffff033d6b60d9baf0521dbae5574578d9f4992ccf00fabaa73cf557ffc22892828260200151836040015160405161118b93929190611a7f565b60405180910390a15050565b6000808284019050838110156111e2576040517f08c379a00000000000000000000000000000000000000000000000000000000081526004016111d990611b63565b60405180910390fd5b8091505092915050565b6000838311158290611234576040517f08c379a000000000000000000000000000000000000000000000000000000000815260040161122b9190611b01565b60405180910390fd5b5060008385039050809150509392505050565b60405180606001604052806060815260200160608152602001606081525090565b828054600181600116156101000203166002900490600052602060002090601f016020900481019282601f106112a957805160ff19168380011785556112d7565b828001600101855582156112d7579182015b828111156112d65782518255916020019190600101906112bb565b5b5090506112e491906112e8565b5090565b61130a91905b808211156113065760008160009055506001016112ee565b5090565b90565b60008135905061131c81611db0565b92915050565b60008083601f84011261133457600080fd5b8235905067ffffffffffffffff81111561134d57600080fd5b60208301915083600182028301111561136557600080fd5b9250929050565b600082601f83011261137d57600080fd5b813561139061138b82611c0b565b611bde565b915080825260208301602083018583830111156113ac57600080fd5b6113b7838284611d5d565b50505092915050565b600082601f8301126113d157600080fd5b81356113e46113df82611c37565b611bde565b9150808252602083016020830185838301111561140057600080fd5b61140b838284611d5d565b50505092915050565b60006060828403121561142657600080fd5b6114306060611bde565b9050600082013567ffffffffffffffff81111561144c57600080fd5b6114588482850161136c565b600083015250602082013567ffffffffffffffff81111561147857600080fd5b6114848482850161136c565b602083015250604082013567ffffffffffffffff8111156114a457600080fd5b6114b08482850161136c565b60408301525092915050565b6000813590506114cb81611dc7565b92915050565b6000602082840312156114e357600080fd5b60006114f18482850161130d565b91505092915050565b6000806040838503121561150d57600080fd5b600061151b8582860161130d565b925050602083013567ffffffffffffffff81111561153857600080fd5b61154485828601611414565b9150509250929050565b6000806000806000806060878903121561156757600080fd5b600087013567ffffffffffffffff81111561158157600080fd5b61158d89828a01611322565b9650965050602087013567ffffffffffffffff8111156115ac57600080fd5b6115b889828a01611322565b9450945050604087013567ffffffffffffffff8111156115d757600080fd5b6115e389828a01611322565b92509250509295509295509295565b60006020828403121561160457600080fd5b600082013567ffffffffffffffff81111561161e57600080fd5b61162a848285016113c0565b91505092915050565b60006020828403121561164557600080fd5b6000611653848285016114bc565b91505092915050565b60006116688383611985565b905092915050565b61167981611d27565b82525050565b61168881611cdf565b82525050565b600061169982611c73565b6116a38185611ca1565b9350836020820285016116b585611c63565b8060005b858110156116f157848403895281516116d2858261165c565b94506116dd83611c94565b925060208a019950506001810190506116b9565b50829750879550505050505092915050565b61170c81611cf1565b82525050565b600061171d82611c89565b6117278185611cc3565b9350611737818560208601611d6c565b61174081611d9f565b840191505092915050565b600061175682611c89565b6117608185611cd4565b9350611770818560208601611d6c565b80840191505092915050565b600061178782611c7e565b6117918185611cb2565b93506117a1818560208601611d6c565b6117aa81611d9f565b840191505092915050565b60006117c082611c7e565b6117ca8185611cc3565b93506117da818560208601611d6c565b6117e381611d9f565b840191505092915050565b60006117f982611c7e565b6118038185611cd4565b9350611813818560208601611d6c565b80840191505092915050565b600061182c601483611cc3565b91507f5061757361626c653a206e6f74207061757365640000000000000000000000006000830152602082019050919050565b600061186c602683611cc3565b91507f4f776e61626c653a206e6577206f776e657220697320746865207a65726f206160008301527f64647265737300000000000000000000000000000000000000000000000000006020830152604082019050919050565b60006118d2601b83611cc3565b91507f536166654d6174683a206164646974696f6e206f766572666c6f7700000000006000830152602082019050919050565b6000611912601083611cc3565b91507f5061757361626c653a20706175736564000000000000000000000000000000006000830152602082019050919050565b6000611952602083611cc3565b91507f4f776e61626c653a2063616c6c6572206973206e6f7420746865206f776e65726000830152602082019050919050565b600060608301600083015184820360008601526119a2828261177c565b915050602083015184820360208601526119bc828261177c565b915050604083015184820360408601526119d6828261177c565b9150508091505092915050565b6119ec81611d1d565b82525050565b60006119fe82846117ee565b915081905092915050565b6000611a15828461174b565b915081905092915050565b6000602082019050611a35600083018461167f565b92915050565b6000602082019050611a506000830184611670565b92915050565b6000604082019050611a6b6000830185611670565b611a7860208301846119e3565b9392505050565b6000606082019050611a94600083018661167f565b8181036020830152611aa681856117b5565b90508181036040830152611aba81846117b5565b9050949350505050565b60006020820190508181036000830152611ade818461168e565b905092915050565b6000602082019050611afb6000830184611703565b92915050565b60006020820190508181036000830152611b1b8184611712565b905092915050565b60006020820190508181036000830152611b3c8161181f565b9050919050565b60006020820190508181036000830152611b5c8161185f565b9050919050565b60006020820190508181036000830152611b7c816118c5565b9050919050565b60006020820190508181036000830152611b9c81611905565b9050919050565b60006020820190508181036000830152611bbc81611945565b9050919050565b6000602082019050611bd860008301846119e3565b92915050565b6000604051905081810181811067ffffffffffffffff82111715611c0157600080fd5b8060405250919050565b600067ffffffffffffffff821115611c2257600080fd5b601f19601f8301169050602081019050919050565b600067ffffffffffffffff821115611c4e57600080fd5b601f19601f8301169050602081019050919050565b6000819050602082019050919050565b600081519050919050565b600081519050919050565b600081519050919050565b6000602082019050919050565b600082825260208201905092915050565b600082825260208201905092915050565b600082825260208201905092915050565b600081905092915050565b6000611cea82611cfd565b9050919050565b60008115159050919050565b600073ffffffffffffffffffffffffffffffffffffffff82169050919050565b6000819050919050565b6000611d3282611d39565b9050919050565b6000611d4482611d4b565b9050919050565b6000611d5682611cfd565b9050919050565b82818337600083830152505050565b60005b83811015611d8a578082015181840152602081019050611d6f565b83811115611d99576000848401525b50505050565b6000601f19601f8301169050919050565b611db981611cdf565b8114611dc457600080fd5b50565b611dd081611d1d565b8114611ddb57600080fd5b5056fea2646970667358221220e15d581979c0fc6bbcdf816d3e0fcd61dc8848a26154d43ae5e8894c5ec36f8e64736f6c63430006000033",
  "source": "// SPDX-License-Identifier: UNLICENSED\npragma solidity >=0.6.0 <0.8.0;\npragma experimental ABIEncoderV2;\nimport \"./IPFSProofOfExistence.sol\";\n\n/// @title A contract which inherits from IPFSProofOfExistence contract\n/// @author Stanislav Trenev\n/// @notice The contract exposes a testable public function, which is internal in the original contract\n/// @dev This contract is entirely for testing purposes, so not use in production\ncontract IPFSProofOfExistenceTestable is IPFSProofOfExistence {\n    constructor() public {}\n\n    /// @notice Function which performs the actual storing of proofs in the state and logs an event\n    /// @dev Function used only for testing purposes\n    /// @param documentOwner The address of the document owner\n    /// @param proof Struct entity containing the documentOwner address, ipfs hash and document type\n    function storeProof(address documentOwner, DocumentReference memory proof)\n        public\n    {\n        _storeProof(documentOwner, proof);\n    }\n}\n",
  "sourcePath": "/Users/stanislavtrenev/Projects/ipfs-proof-of-existence/contracts/IPFSProofOfExistenceTestable.sol",
  "compiler": {
    "name": "solc",
    "version": "0.6.0+commit.26b70077.Emscripten.clang"
  },
  "schemaVersion": "3.2.5",
  "updatedAt": "2020-12-10T22:30:45.833Z",
  "networkType": "ethereum",
  "devdoc": {
    "author": "Stanislav Trenev",
    "details": "This contract is entirely for testing purposes, so not use in production",
    "methods": {
      "checkDocumentsForAddress(address)": {
        "params": {
          "ownerAddress": "The address of the proof's owner"
        },
        "returns": {
          "_0": "array of proofs"
        }
      },
      "getNumberOfProofs(address)": {
        "params": {
          "ownerAddress": "The address of the proof's owner"
        },
        "returns": {
          "_0": "number of proofs"
        }
      },
      "ipfsHashExists(string)": {
        "params": {
          "ipfsHash": "The ipfs hash we are checking"
        },
        "returns": {
          "_0": "boolean if the hash is already stored"
        }
      },
      "owner()": {
        "details": "Returns the address of the current owner."
      },
      "paused()": {
        "details": "Returns true if the contract is paused, and false otherwise."
      },
      "renounceOwnership()": {
        "details": "Leaves the contract without owner. It will not be possible to call `onlyOwner` functions anymore. Can only be called by the current owner.     * NOTE: Renouncing ownership will leave the contract without an owner, thereby removing any functionality that is only available to the owner."
      },
      "saveProofOfExistence(string,string,string)": {
        "details": "External function which is executed when the contract is not paused",
        "params": {
          "_documentType": "The document type of the stored document",
          "_ipfsHash": "The ipfs hash of the stored document",
          "_timeStamp": "The timestamp of the stored document"
        }
      },
      "storeProof(address,(string,string,string))": {
        "details": "Function used only for testing purposes",
        "params": {
          "documentOwner": "The address of the document owner",
          "proof": "Struct entity containing the documentOwner address, ipfs hash and document type"
        }
      },
      "transferOwnership(address)": {
        "details": "Transfers ownership of the contract to a new account (`newOwner`). Can only be called by the current owner."
      },
      "withdrawBalance(uint256)": {
        "params": {
          "withdrawAmount": "The amount to withdraw by the owner of the contract"
        }
      }
    },
    "title": "A contract which inherits from IPFSProofOfExistence contract"
  },
  "userdoc": {
    "methods": {
      "checkDocumentsForAddress(address)": {
        "notice": "View function to get stored documents for specific address"
      },
      "getNumberOfProofs(address)": {
        "notice": "View function to get number of proofs for specific address"
      },
      "getTotalProofs()": {
        "notice": "View function to get the total number of proofs stored by the contract"
      },
      "ipfsHashExists(string)": {
        "notice": "Function to check whether an ipfs hash already exists"
      },
      "pause()": {
        "notice": "Function to pause the contract"
      },
      "saveProofOfExistence(string,string,string)": {
        "notice": "Payable function which is called externaly to store a proof. The sender should send ether along with the transaction"
      },
      "storeProof(address,(string,string,string))": {
        "notice": "Function which performs the actual storing of proofs in the state and logs an event"
      },
      "unpause()": {
        "notice": "Function to unpause the contract"
      },
      "withdrawBalance(uint256)": {
        "notice": "Function to withdraw ether stored in the contract, agreggated from fees"
      }
    },
    "notice": "The contract exposes a testable public function, which is internal in the original contract"
  }
}