{
  "contractName": "IPFSProofOfExistence",
  "abi": [
    {
      "inputs": [],
      "stateMutability": "nonpayable",
      "type": "constructor"
    },
    {
      "anonymous": false,
      "inputs": [
        {
          "indexed": false,
          "internalType": "address",
          "name": "accountAddress",
          "type": "address"
        },
        {
          "indexed": false,
          "internalType": "string",
          "name": "ipfsHash",
          "type": "string"
        },
        {
          "indexed": false,
          "internalType": "string",
          "name": "documentType",
          "type": "string"
        }
      ],
      "name": "LogDocumentStored",
      "type": "event"
    },
    {
      "anonymous": false,
      "inputs": [
        {
          "indexed": false,
          "internalType": "address",
          "name": "accountAddress",
          "type": "address"
        },
        {
          "indexed": false,
          "internalType": "uint256",
          "name": "amount",
          "type": "uint256"
        }
      ],
      "name": "LogFundsWithdrawal",
      "type": "event"
    },
    {
      "anonymous": false,
      "inputs": [
        {
          "indexed": true,
          "internalType": "address",
          "name": "previousOwner",
          "type": "address"
        },
        {
          "indexed": true,
          "internalType": "address",
          "name": "newOwner",
          "type": "address"
        }
      ],
      "name": "OwnershipTransferred",
      "type": "event"
    },
    {
      "anonymous": false,
      "inputs": [
        {
          "indexed": false,
          "internalType": "address",
          "name": "account",
          "type": "address"
        }
      ],
      "name": "Paused",
      "type": "event"
    },
    {
      "anonymous": false,
      "inputs": [
        {
          "indexed": false,
          "internalType": "address",
          "name": "account",
          "type": "address"
        }
      ],
      "name": "Unpaused",
      "type": "event"
    },
    {
      "inputs": [],
      "name": "owner",
      "outputs": [
        {
          "internalType": "address",
          "name": "",
          "type": "address"
        }
      ],
      "stateMutability": "view",
      "type": "function",
      "constant": true
    },
    {
      "inputs": [],
      "name": "paused",
      "outputs": [
        {
          "internalType": "bool",
          "name": "",
          "type": "bool"
        }
      ],
      "stateMutability": "view",
      "type": "function",
      "constant": true
    },
    {
      "inputs": [],
      "name": "renounceOwnership",
      "outputs": [],
      "stateMutability": "nonpayable",
      "type": "function"
    },
    {
      "inputs": [
        {
          "internalType": "address",
          "name": "newOwner",
          "type": "address"
        }
      ],
      "name": "transferOwnership",
      "outputs": [],
      "stateMutability": "nonpayable",
      "type": "function"
    },
    {
      "inputs": [
        {
          "internalType": "string",
          "name": "_timeStamp",
          "type": "string"
        },
        {
          "internalType": "string",
          "name": "_ipfsHash",
          "type": "string"
        },
        {
          "internalType": "string",
          "name": "_documentType",
          "type": "string"
        }
      ],
      "name": "saveProofOfExistence",
      "outputs": [],
      "stateMutability": "payable",
      "type": "function",
      "payable": true
    },
    {
      "inputs": [
        {
          "internalType": "address",
          "name": "ownerAddress",
          "type": "address"
        }
      ],
      "name": "checkDocumentsForAddress",
      "outputs": [
        {
          "components": [
            {
              "internalType": "string",
              "name": "timeStamp",
              "type": "string"
            },
            {
              "internalType": "string",
              "name": "ipfsHash",
              "type": "string"
            },
            {
              "internalType": "string",
              "name": "documentType",
              "type": "string"
            }
          ],
          "internalType": "struct IPFSProofOfExistence.DocumentReference[]",
          "name": "",
          "type": "tuple[]"
        }
      ],
      "stateMutability": "view",
      "type": "function",
      "constant": true
    },
    {
      "inputs": [],
      "name": "pause",
      "outputs": [],
      "stateMutability": "nonpayable",
      "type": "function"
    },
    {
      "inputs": [],
      "name": "unpause",
      "outputs": [],
      "stateMutability": "nonpayable",
      "type": "function"
    },
    {
      "inputs": [
        {
          "internalType": "address",
          "name": "ownerAddress",
          "type": "address"
        }
      ],
      "name": "getNumberOfProofs",
      "outputs": [
        {
          "internalType": "uint256",
          "name": "",
          "type": "uint256"
        }
      ],
      "stateMutability": "view",
      "type": "function",
      "constant": true
    },
    {
      "inputs": [],
      "name": "getTotalProofs",
      "outputs": [
        {
          "internalType": "uint256",
          "name": "",
          "type": "uint256"
        }
      ],
      "stateMutability": "view",
      "type": "function",
      "constant": true
    },
    {
      "inputs": [
        {
          "internalType": "string",
          "name": "ipfsHash",
          "type": "string"
        }
      ],
      "name": "ipfsHashExists",
      "outputs": [
        {
          "internalType": "bool",
          "name": "",
          "type": "bool"
        }
      ],
      "stateMutability": "view",
      "type": "function",
      "constant": true
    },
    {
      "inputs": [
        {
          "internalType": "uint256",
          "name": "withdrawAmount",
          "type": "uint256"
        }
      ],
      "name": "withdrawBalance",
      "outputs": [],
      "stateMutability": "nonpayable",
      "type": "function"
    }
  ],
  "bytecode": "0x608060405266038d7ea4c6800060025534801561001b57600080fd5b5060008060006101000a81548160ff02191690831515021790555060006100466100ea60201b60201c565b905080600060016101000a81548173ffffffffffffffffffffffffffffffffffffffff021916908373ffffffffffffffffffffffffffffffffffffffff1602179055508073ffffffffffffffffffffffffffffffffffffffff16600073ffffffffffffffffffffffffffffffffffffffff167f8be0079c531659141344cd1fd0a4f28419497f9722a3daafe3b4186f6b6457e060405160405180910390a3506100f2565b600033905090565b611c46806101016000396000f3fe6080604052600436106100a75760003560e01c80638da5cb5b116100645780638da5cb5b146101965780639b1bc0c9146101c1578063d6fc355f146101ec578063da76d5cd14610229578063ea15c38514610252578063f2fde38b1461026e576100a7565b80631a2110e6146100ac5780633f4ba83a146100e95780635c975abb14610100578063715018a61461012b5780637182ca47146101425780638456cb591461017f575b600080fd5b3480156100b857600080fd5b506100d360048036036100ce9190810190611450565b610297565b6040516100e09190611944565b60405180910390f35b3480156100f557600080fd5b506100fe6102cc565b005b34801561010c57600080fd5b5061011561036d565b6040516101229190611944565b60405180910390f35b34801561013757600080fd5b50610140610383565b005b34801561014e57600080fd5b5061016960048036036101649190810190611383565b6104da565b6040516101769190611a21565b60405180910390f35b34801561018b57600080fd5b50610194610523565b005b3480156101a257600080fd5b506101ab6105c4565b6040516101b8919061187e565b60405180910390f35b3480156101cd57600080fd5b506101d66105ed565b6040516101e39190611a21565b60405180910390f35b3480156101f857600080fd5b50610213600480360361020e9190810190611383565b6105f7565b6040516102209190611922565b60405180910390f35b34801561023557600080fd5b50610250600480360361024b9190810190611491565b6108ca565b005b61026c600480360361026791908101906113ac565b610a0c565b005b34801561027a57600080fd5b5061029560048036036102909190810190611383565b610be6565b005b60006006826040516102a99190611867565b908152602001604051809103902060009054906101000a900460ff169050919050565b6102d4610dad565b73ffffffffffffffffffffffffffffffffffffffff16600060019054906101000a900473ffffffffffffffffffffffffffffffffffffffff1673ffffffffffffffffffffffffffffffffffffffff1614610363576040517f08c379a000000000000000000000000000000000000000000000000000000000815260040161035a90611a01565b60405180910390fd5b61036b610db5565b565b60008060009054906101000a900460ff16905090565b61038b610dad565b73ffffffffffffffffffffffffffffffffffffffff16600060019054906101000a900473ffffffffffffffffffffffffffffffffffffffff1673ffffffffffffffffffffffffffffffffffffffff161461041a576040517f08c379a000000000000000000000000000000000000000000000000000000000815260040161041190611a01565b60405180910390fd5b600073ffffffffffffffffffffffffffffffffffffffff16600060019054906101000a900473ffffffffffffffffffffffffffffffffffffffff1673ffffffffffffffffffffffffffffffffffffffff167f8be0079c531659141344cd1fd0a4f28419497f9722a3daafe3b4186f6b6457e060405160405180910390a360008060016101000a81548173ffffffffffffffffffffffffffffffffffffffff021916908373ffffffffffffffffffffffffffffffffffffffff160217905550565b6000600560008373ffffffffffffffffffffffffffffffffffffffff1673ffffffffffffffffffffffffffffffffffffffff168152602001908152602001600020549050919050565b61052b610dad565b73ffffffffffffffffffffffffffffffffffffffff16600060019054906101000a900473ffffffffffffffffffffffffffffffffffffffff1673ffffffffffffffffffffffffffffffffffffffff16146105ba576040517f08c379a00000000000000000000000000000000000000000000000000000000081526004016105b190611a01565b60405180910390fd5b6105c2610e5d565b565b60008060019054906101000a900473ffffffffffffffffffffffffffffffffffffffff16905090565b6000600154905090565b60606000809054906101000a900460ff1615610648576040517f08c379a000000000000000000000000000000000000000000000000000000000815260040161063f906119e1565b60405180910390fd5b600460008373ffffffffffffffffffffffffffffffffffffffff1673ffffffffffffffffffffffffffffffffffffffff168152602001908152602001600020805480602002602001604051908101604052809291908181526020016000905b828210156108bf5783829060005260206000209060030201604051806060016040529081600082018054600181600116156101000203166002900480601f0160208091040260200160405190810160405280929190818152602001828054600181600116156101000203166002900480156107635780601f1061073857610100808354040283529160200191610763565b820191906000526020600020905b81548152906001019060200180831161074657829003601f168201915b50505050508152602001600182018054600181600116156101000203166002900480601f0160208091040260200160405190810160405280929190818152602001828054600181600116156101000203166002900480156108055780601f106107da57610100808354040283529160200191610805565b820191906000526020600020905b8154815290600101906020018083116107e857829003601f168201915b50505050508152602001600282018054600181600116156101000203166002900480601f0160208091040260200160405190810160405280929190818152602001828054600181600116156101000203166002900480156108a75780601f1061087c576101008083540402835291602001916108a7565b820191906000526020600020905b81548152906001019060200180831161088a57829003601f168201915b505050505081525050815260200190600101906106a7565b505050509050919050565b6108d2610dad565b73ffffffffffffffffffffffffffffffffffffffff16600060019054906101000a900473ffffffffffffffffffffffffffffffffffffffff1673ffffffffffffffffffffffffffffffffffffffff1614610961576040517f08c379a000000000000000000000000000000000000000000000000000000000815260040161095890611a01565b60405180910390fd5b6000811161096e57600080fd5b61098381600354610f0690919063ffffffff16565b6003819055503373ffffffffffffffffffffffffffffffffffffffff166108fc829081150290604051600060405180830381858888f193505050501580156109cf573d6000803e3d6000fd5b507f734fcf7bef4b986ceeebbdc8134aaa082aa17a4c7309655da456b33ebe598abb3382604051610a019291906118b4565b60405180910390a150565b6000809054906101000a900460ff1615610a5b576040517f08c379a0000000000000000000000000000000000000000000000000000000008152600401610a52906119e1565b60405180910390fd5b610a636111f5565b604051806060016040528088888080601f016020809104026020016040519081016040528093929190818152602001838380828437600081840152601f19601f82011690508083019250505050505050815260200186868080601f016020809104026020016040519081016040528093929190818152602001838380828437600081840152601f19601f82011690508083019250505050505050815260200184848080601f016020809104026020016040519081016040528093929190818152602001838380828437600081840152601f19601f820116905080830192505050505050508152509050600254341015610b5b57600080fd5b60001515610bac86868080601f016020809104026020016040519081016040528093929190818152602001838380828437600081840152601f19601f82011690508083019250505050505050610297565b151514610bb857600080fd5b610bcd34600354610f5090919063ffffffff16565b600381905550610bdd3382610fa5565b50505050505050565b610bee610dad565b73ffffffffffffffffffffffffffffffffffffffff16600060019054906101000a900473ffffffffffffffffffffffffffffffffffffffff1673ffffffffffffffffffffffffffffffffffffffff1614610c7d576040517f08c379a0000000000000000000000000000000000000000000000000000000008152600401610c7490611a01565b60405180910390fd5b600073ffffffffffffffffffffffffffffffffffffffff168173ffffffffffffffffffffffffffffffffffffffff161415610ced576040517f08c379a0000000000000000000000000000000000000000000000000000000008152600401610ce4906119a1565b60405180910390fd5b8073ffffffffffffffffffffffffffffffffffffffff16600060019054906101000a900473ffffffffffffffffffffffffffffffffffffffff1673ffffffffffffffffffffffffffffffffffffffff167f8be0079c531659141344cd1fd0a4f28419497f9722a3daafe3b4186f6b6457e060405160405180910390a380600060016101000a81548173ffffffffffffffffffffffffffffffffffffffff021916908373ffffffffffffffffffffffffffffffffffffffff16021790555050565b600033905090565b6000809054906101000a900460ff16610e03576040517f08c379a0000000000000000000000000000000000000000000000000000000008152600401610dfa90611981565b60405180910390fd5b60008060006101000a81548160ff0219169083151502179055507f5db9ee0a495bf2e6ff9c91a7834c1ba4fdd244a5e8aa4e537bd38aeae4b073aa610e46610dad565b604051610e539190611899565b60405180910390a1565b6000809054906101000a900460ff1615610eac576040517f08c379a0000000000000000000000000000000000000000000000000000000008152600401610ea3906119e1565b60405180910390fd5b60016000806101000a81548160ff0219169083151502179055507f62e78cea01bee320cd4e420270b5ea74000d11b0c9f74754ebdbfc544b05a258610eef610dad565b604051610efc9190611899565b60405180910390a1565b6000610f4883836040518060400160405280601e81526020017f536166654d6174683a207375627472616374696f6e206f766572666c6f77000081525061119a565b905092915050565b600080828401905083811015610f9b576040517f08c379a0000000000000000000000000000000000000000000000000000000008152600401610f92906119c1565b60405180910390fd5b8091505092915050565b610fba60018054610f5090919063ffffffff16565b6001819055506110136001600560008573ffffffffffffffffffffffffffffffffffffffff1673ffffffffffffffffffffffffffffffffffffffff16815260200190815260200160002054610f5090919063ffffffff16565b600560008473ffffffffffffffffffffffffffffffffffffffff1673ffffffffffffffffffffffffffffffffffffffff16815260200190815260200160002081905550600460008373ffffffffffffffffffffffffffffffffffffffff1673ffffffffffffffffffffffffffffffffffffffff16815260200190815260200160002081908060018154018082558091505060019003906000526020600020906003020160009091909190915060008201518160000190805190602001906110db929190611216565b5060208201518160010190805190602001906110f8929190611216565b506040820151816002019080519060200190611115929190611216565b50505060016006826020015160405161112e9190611850565b908152602001604051809103902060006101000a81548160ff0219169083151502179055507fffff033d6b60d9baf0521dbae5574578d9f4992ccf00fabaa73cf557ffc22892828260200151836040015160405161118e939291906118dd565b60405180910390a15050565b60008383111582906111e2576040517f08c379a00000000000000000000000000000000000000000000000000000000081526004016111d9919061195f565b60405180910390fd5b5060008385039050809150509392505050565b60405180606001604052806060815260200160608152602001606081525090565b828054600181600116156101000203166002900490600052602060002090601f016020900481019282601f1061125757805160ff1916838001178555611285565b82800160010185558215611285579182015b82811115611284578251825591602001919060010190611269565b5b5090506112929190611296565b5090565b6112b891905b808211156112b457600081600090555060010161129c565b5090565b90565b6000813590506112ca81611be2565b92915050565b60008083601f8401126112e257600080fd5b8235905067ffffffffffffffff8111156112fb57600080fd5b60208301915083600182028301111561131357600080fd5b9250929050565b600082601f83011261132b57600080fd5b813561133e61133982611a69565b611a3c565b9150808252602083016020830185838301111561135a57600080fd5b611365838284611b8f565b50505092915050565b60008135905061137d81611bf9565b92915050565b60006020828403121561139557600080fd5b60006113a3848285016112bb565b91505092915050565b600080600080600080606087890312156113c557600080fd5b600087013567ffffffffffffffff8111156113df57600080fd5b6113eb89828a016112d0565b9650965050602087013567ffffffffffffffff81111561140a57600080fd5b61141689828a016112d0565b9450945050604087013567ffffffffffffffff81111561143557600080fd5b61144189828a016112d0565b92509250509295509295509295565b60006020828403121561146257600080fd5b600082013567ffffffffffffffff81111561147c57600080fd5b6114888482850161131a565b91505092915050565b6000602082840312156114a357600080fd5b60006114b18482850161136e565b91505092915050565b60006114c683836117e3565b905092915050565b6114d781611b59565b82525050565b6114e681611b11565b82525050565b60006114f782611aa5565b6115018185611ad3565b93508360208202850161151385611a95565b8060005b8581101561154f578484038952815161153085826114ba565b945061153b83611ac6565b925060208a01995050600181019050611517565b50829750879550505050505092915050565b61156a81611b23565b82525050565b600061157b82611abb565b6115858185611af5565b9350611595818560208601611b9e565b61159e81611bd1565b840191505092915050565b60006115b482611abb565b6115be8185611b06565b93506115ce818560208601611b9e565b80840191505092915050565b60006115e582611ab0565b6115ef8185611ae4565b93506115ff818560208601611b9e565b61160881611bd1565b840191505092915050565b600061161e82611ab0565b6116288185611af5565b9350611638818560208601611b9e565b61164181611bd1565b840191505092915050565b600061165782611ab0565b6116618185611b06565b9350611671818560208601611b9e565b80840191505092915050565b600061168a601483611af5565b91507f5061757361626c653a206e6f74207061757365640000000000000000000000006000830152602082019050919050565b60006116ca602683611af5565b91507f4f776e61626c653a206e6577206f776e657220697320746865207a65726f206160008301527f64647265737300000000000000000000000000000000000000000000000000006020830152604082019050919050565b6000611730601b83611af5565b91507f536166654d6174683a206164646974696f6e206f766572666c6f7700000000006000830152602082019050919050565b6000611770601083611af5565b91507f5061757361626c653a20706175736564000000000000000000000000000000006000830152602082019050919050565b60006117b0602083611af5565b91507f4f776e61626c653a2063616c6c6572206973206e6f7420746865206f776e65726000830152602082019050919050565b6000606083016000830151848203600086015261180082826115da565b9150506020830151848203602086015261181a82826115da565b9150506040830151848203604086015261183482826115da565b9150508091505092915050565b61184a81611b4f565b82525050565b600061185c828461164c565b915081905092915050565b600061187382846115a9565b915081905092915050565b600060208201905061189360008301846114dd565b92915050565b60006020820190506118ae60008301846114ce565b92915050565b60006040820190506118c960008301856114ce565b6118d66020830184611841565b9392505050565b60006060820190506118f260008301866114dd565b81810360208301526119048185611613565b905081810360408301526119188184611613565b9050949350505050565b6000602082019050818103600083015261193c81846114ec565b905092915050565b60006020820190506119596000830184611561565b92915050565b600060208201905081810360008301526119798184611570565b905092915050565b6000602082019050818103600083015261199a8161167d565b9050919050565b600060208201905081810360008301526119ba816116bd565b9050919050565b600060208201905081810360008301526119da81611723565b9050919050565b600060208201905081810360008301526119fa81611763565b9050919050565b60006020820190508181036000830152611a1a816117a3565b9050919050565b6000602082019050611a366000830184611841565b92915050565b6000604051905081810181811067ffffffffffffffff82111715611a5f57600080fd5b8060405250919050565b600067ffffffffffffffff821115611a8057600080fd5b601f19601f8301169050602081019050919050565b6000819050602082019050919050565b600081519050919050565b600081519050919050565b600081519050919050565b6000602082019050919050565b600082825260208201905092915050565b600082825260208201905092915050565b600082825260208201905092915050565b600081905092915050565b6000611b1c82611b2f565b9050919050565b60008115159050919050565b600073ffffffffffffffffffffffffffffffffffffffff82169050919050565b6000819050919050565b6000611b6482611b6b565b9050919050565b6000611b7682611b7d565b9050919050565b6000611b8882611b2f565b9050919050565b82818337600083830152505050565b60005b83811015611bbc578082015181840152602081019050611ba1565b83811115611bcb576000848401525b50505050565b6000601f19601f8301169050919050565b611beb81611b11565b8114611bf657600080fd5b50565b611c0281611b4f565b8114611c0d57600080fd5b5056fea26469706673582212206122fdc4109a0a53cb1915a1462c92e3443a3411cdd47ecccc3da631bec1d66264736f6c63430006000033",
  "source": "// SPDX-License-Identifier: UNLICENSED\npragma solidity >=0.6.0 <0.8.0;\npragma experimental ABIEncoderV2;\nimport \"../client/node_modules/@openzeppelin/contracts/utils/Pausable.sol\";\nimport \"../client/node_modules/@openzeppelin/contracts/access/Ownable.sol\";\nimport \"../client/node_modules/@openzeppelin/contracts/math/SafeMath.sol\";\n\n/// @title A proof of existence contract which stores ipfs hashes, timestamps and document types\n/// @author Stanislav Trenev\n/// @notice You can use this contract to verify if a document exists\n/// @dev All function calls are implemented for the ConsenSys Developer bootcamp. It might not be safe to use it in production environment\ncontract IPFSProofOfExistence is Pausable, Ownable {\n    using SafeMath for uint256;\n\n    struct DocumentReference {\n        string timeStamp;\n        string ipfsHash;\n        string documentType;\n    }\n\n    uint256 private totalProofs;\n    uint256 private _proofFee = 1000000000000000;\n    uint256 private contractBalance;\n\n    mapping(address => DocumentReference[]) private proofs;\n    mapping(address => uint256) private proofCount;\n    mapping(string => bool) private ipfsHashes;\n\n    event LogDocumentStored(\n        address accountAddress,\n        string ipfsHash,\n        string documentType\n    );\n    event LogFundsWithdrawal(address accountAddress, uint256 amount);\n\n    constructor() public {}\n\n    /// @notice Internal function which performs the actual storing of proofs in the state and logs an event\n    /// @dev Internal function to be called inside the contract\n    /// @param documentOwner The address of the document owner\n    /// @param proof Struct entity containing the documentOwner address, ipfs hash and document type\n    function _storeProof(address documentOwner, DocumentReference memory proof)\n        internal\n    {\n        totalProofs = totalProofs.add(1);\n        proofCount[documentOwner] = proofCount[documentOwner].add(1);\n        proofs[documentOwner].push(proof);\n        ipfsHashes[proof.ipfsHash] = true;\n        emit LogDocumentStored(\n            documentOwner,\n            proof.ipfsHash,\n            proof.documentType\n        );\n    }\n\n    /// @notice Payable function which is called externaly to store a proof. The sender should send ether along with the transaction\n    /// @dev External function which is executed when the contract is not paused\n    /// @param _timeStamp The timestamp of the stored document\n    /// @param _ipfsHash The ipfs hash of the stored document\n    /// @param _documentType The document type of the stored document\n    function saveProofOfExistence(\n        string calldata _timeStamp,\n        string calldata _ipfsHash,\n        string calldata _documentType\n    ) external payable whenNotPaused {\n        DocumentReference memory documentProof = DocumentReference({\n            timeStamp: _timeStamp,\n            ipfsHash: _ipfsHash,\n            documentType: _documentType\n        });\n\n        require(msg.value >= _proofFee);\n        require(ipfsHashExists(_ipfsHash) == false);\n        contractBalance = contractBalance.add(msg.value);\n        _storeProof(msg.sender, documentProof);\n    }\n\n    /// @notice View function to get stored documents for specific address\n    /// @param ownerAddress The address of the proof's owner\n    /// @return array of proofs\n    function checkDocumentsForAddress(address ownerAddress)\n        public\n        view\n        whenNotPaused\n        returns (DocumentReference[] memory)\n    {\n        return proofs[ownerAddress];\n    }\n\n    /// @notice Function to pause the contract\n    function pause() public onlyOwner {\n        _pause();\n    }\n\n    /// @notice Function to unpause the contract\n    function unpause() public onlyOwner {\n        _unpause();\n    }\n\n    /// @notice View function to get number of proofs for specific address\n    /// @param ownerAddress The address of the proof's owner\n    /// @return number of proofs\n    function getNumberOfProofs(address ownerAddress)\n        public\n        view\n        returns (uint256)\n    {\n        return proofCount[ownerAddress];\n    }\n\n    /// @notice View function to get the total number of proofs stored by the contract\n    /// @return number of total proofs\n    function getTotalProofs() public view returns (uint256) {\n        return totalProofs;\n    }\n\n    /// @notice Function to check whether an ipfs hash already exists\n    /// @param ipfsHash The ipfs hash we are checking\n    /// @return boolean if the hash is already stored\n    function ipfsHashExists(string memory ipfsHash) public view returns (bool) {\n        return ipfsHashes[ipfsHash];\n    }\n\n    /// @notice Function to withdraw ether stored in the contract, agreggated from fees\n    /// @param withdrawAmount The amount to withdraw by the owner of the contract\n    function withdrawBalance(uint256 withdrawAmount) external onlyOwner {\n        require(withdrawAmount > 0);\n        contractBalance = contractBalance.sub(withdrawAmount);\n        msg.sender.transfer(withdrawAmount);\n        emit LogFundsWithdrawal(msg.sender, withdrawAmount);\n    }\n}\n",
  "sourcePath": "/Users/stanislavtrenev/Projects/ipfs-proof-of-existence/contracts/IPFSProofOfExistence.sol",
  "compiler": {
    "name": "solc",
    "version": "0.6.0+commit.26b70077.Emscripten.clang"
  },
  "schemaVersion": "3.2.5",
  "updatedAt": "2020-11-25T21:05:09.387Z",
  "networkType": "ethereum",
  "devdoc": {
    "author": "Stanislav Trenev",
    "details": "All function calls are implemented for the ConsenSys Developer bootcamp. It might not be safe to use it in production environment",
    "methods": {
      "checkDocumentsForAddress(address)": {
        "params": {
          "ownerAddress": "The address of the proof's owner"
        },
        "returns": {
          "_0": "array of proofs"
        }
      },
      "getNumberOfProofs(address)": {
        "params": {
          "ownerAddress": "The address of the proof's owner"
        },
        "returns": {
          "_0": "number of proofs"
        }
      },
      "ipfsHashExists(string)": {
        "params": {
          "ipfsHash": "The ipfs hash we are checking"
        },
        "returns": {
          "_0": "boolean if the hash is already stored"
        }
      },
      "owner()": {
        "details": "Returns the address of the current owner."
      },
      "paused()": {
        "details": "Returns true if the contract is paused, and false otherwise."
      },
      "renounceOwnership()": {
        "details": "Leaves the contract without owner. It will not be possible to call `onlyOwner` functions anymore. Can only be called by the current owner.     * NOTE: Renouncing ownership will leave the contract without an owner, thereby removing any functionality that is only available to the owner."
      },
      "saveProofOfExistence(string,string,string)": {
        "details": "External function which is executed when the contract is not paused",
        "params": {
          "_documentType": "The document type of the stored document",
          "_ipfsHash": "The ipfs hash of the stored document",
          "_timeStamp": "The timestamp of the stored document"
        }
      },
      "transferOwnership(address)": {
        "details": "Transfers ownership of the contract to a new account (`newOwner`). Can only be called by the current owner."
      },
      "withdrawBalance(uint256)": {
        "params": {
          "withdrawAmount": "The amount to withdraw by the owner of the contract"
        }
      }
    },
    "title": "A proof of existence contract which stores ipfs hashes, timestamps and document types"
  },
  "userdoc": {
    "methods": {
      "checkDocumentsForAddress(address)": {
        "notice": "View function to get stored documents for specific address"
      },
      "getNumberOfProofs(address)": {
        "notice": "View function to get number of proofs for specific address"
      },
      "getTotalProofs()": {
        "notice": "View function to get the total number of proofs stored by the contract"
      },
      "ipfsHashExists(string)": {
        "notice": "Function to check whether an ipfs hash already exists"
      },
      "pause()": {
        "notice": "Function to pause the contract"
      },
      "saveProofOfExistence(string,string,string)": {
        "notice": "Payable function which is called externaly to store a proof. The sender should send ether along with the transaction"
      },
      "unpause()": {
        "notice": "Function to unpause the contract"
      },
      "withdrawBalance(uint256)": {
        "notice": "Function to withdraw ether stored in the contract, agreggated from fees"
      }
    },
    "notice": "You can use this contract to verify if a document exists"
  }
}